{
  "_format": "hh-sol-artifact-1",
  "contractName": "Lock",
  "sourceName": "contracts/Lock.sol",
  "abi": [
    {
      "anonymous": false,
      "inputs": [
        {
          "indexed": false,
          "internalType": "address",
          "name": "_from",
          "type": "address"
        },
        {
          "indexed": false,
          "internalType": "address",
          "name": "_to",
          "type": "address"
        },
        {
          "indexed": false,
          "internalType": "uint256",
          "name": "_value",
          "type": "uint256"
        },
        {
          "indexed": false,
          "internalType": "uint256",
          "name": "_id",
          "type": "uint256"
        }
      ],
      "name": "TokenTransfered",
      "type": "event"
    },
    {
      "anonymous": false,
      "inputs": [
        {
          "indexed": false,
          "internalType": "address",
          "name": "_from",
          "type": "address"
        },
        {
          "indexed": false,
          "internalType": "address",
          "name": "_to",
          "type": "address"
        },
        {
          "indexed": false,
          "internalType": "uint256",
          "name": "_value",
          "type": "uint256"
        }
      ],
      "name": "withdrawComplete",
      "type": "event"
    },
    {
      "inputs": [],
      "name": "getAllIds",
      "outputs": [
        {
          "internalType": "uint256[]",
          "name": "",
          "type": "uint256[]"
        }
      ],
      "stateMutability": "view",
      "type": "function"
    },
    {
      "inputs": [
        {
          "internalType": "uint256",
          "name": "_index",
          "type": "uint256"
        }
      ],
      "name": "getDetailsOf",
      "outputs": [
        {
          "components": [
            {
              "internalType": "uint256",
              "name": "id",
              "type": "uint256"
            },
            {
              "internalType": "address",
              "name": "tokenAddress",
              "type": "address"
            },
            {
              "internalType": "address",
              "name": "owner",
              "type": "address"
            },
            {
              "internalType": "uint256",
              "name": "lockedTime",
              "type": "uint256"
            },
            {
              "internalType": "uint256",
              "name": "unlockTime",
              "type": "uint256"
            },
            {
              "internalType": "uint256",
              "name": "amount",
              "type": "uint256"
            },
            {
              "internalType": "bool",
              "name": "withdrawed",
              "type": "bool"
            }
          ],
          "internalType": "struct Lock.Details",
          "name": "",
          "type": "tuple"
        }
      ],
      "stateMutability": "view",
      "type": "function"
    },
    {
      "inputs": [],
      "name": "id",
      "outputs": [
        {
          "internalType": "uint256",
          "name": "",
          "type": "uint256"
        }
      ],
      "stateMutability": "view",
      "type": "function"
    },
    {
      "inputs": [
        {
          "internalType": "address",
          "name": "_tokenAddress",
          "type": "address"
        },
        {
          "internalType": "uint256",
          "name": "_amount",
          "type": "uint256"
        },
        {
          "internalType": "uint256",
          "name": "_unlockTime",
          "type": "uint256"
        }
      ],
      "name": "lockToken",
      "outputs": [],
      "stateMutability": "nonpayable",
      "type": "function"
    },
    {
      "inputs": [
        {
          "internalType": "address",
          "name": "_tokenAddress",
          "type": "address"
        }
      ],
      "name": "myTokenBalance",
      "outputs": [
        {
          "internalType": "uint256",
          "name": "",
          "type": "uint256"
        }
      ],
      "stateMutability": "view",
      "type": "function"
    },
    {
      "inputs": [],
      "name": "myTransactions",
      "outputs": [
        {
          "internalType": "uint256[]",
          "name": "",
          "type": "uint256[]"
        }
      ],
      "stateMutability": "view",
      "type": "function"
    },
    {
      "inputs": [
        {
          "internalType": "address",
          "name": "_tokenAddress",
          "type": "address"
        }
      ],
      "name": "tokenBalanceOf",
      "outputs": [
        {
          "internalType": "uint256",
          "name": "",
          "type": "uint256"
        }
      ],
      "stateMutability": "view",
      "type": "function"
    },
    {
      "inputs": [],
      "name": "totolAmount",
      "outputs": [
        {
          "internalType": "uint256",
          "name": "",
          "type": "uint256"
        }
      ],
      "stateMutability": "view",
      "type": "function"
    },
    {
      "inputs": [
        {
          "internalType": "uint256",
          "name": "_id",
          "type": "uint256"
        }
      ],
      "name": "withDrawToken",
      "outputs": [],
      "stateMutability": "nonpayable",
      "type": "function"
    }
  ],
  "bytecode": "0x60806040526001600055600060025534801561001a57600080fd5b506114318061002a6000396000f3fe608060405234801561001057600080fd5b50600436106100935760003560e01c8063a21c273511610066578063a21c27351461011e578063aaa44e5c1461014e578063af640d0f1461016c578063d0b5c5ca1461018a578063e42c08f2146101a857610093565b80630bade940146100985780633136e12a146100c85780633ab3f0fc146100e4578063839972f914610102575b600080fd5b6100b260048036038101906100ad9190610ca8565b6101d8565b6040516100bf9190610dce565b60405180910390f35b6100e260048036038101906100dd9190610ca8565b6102f4565b005b6100ec610624565b6040516100f99190610df8565b60405180910390f35b61011c60048036038101906101179190610e3f565b61062a565b005b61013860048036038101906101339190610e92565b610a06565b6040516101459190610df8565b60405180910390f35b610156610a8c565b6040516101639190610f6e565b60405180910390f35b610174610ae4565b6040516101819190610df8565b60405180910390f35b610192610aea565b60405161019f9190610f6e565b60405180910390f35b6101c260048036038101906101bd9190610e92565b610b7f565b6040516101cf9190610df8565b60405180910390f35b6101e0610c02565b600360008381526020019081526020016000206040518060e0016040529081600082015481526020016001820160009054906101000a900473ffffffffffffffffffffffffffffffffffffffff1673ffffffffffffffffffffffffffffffffffffffff1673ffffffffffffffffffffffffffffffffffffffff1681526020016002820160009054906101000a900473ffffffffffffffffffffffffffffffffffffffff1673ffffffffffffffffffffffffffffffffffffffff1673ffffffffffffffffffffffffffffffffffffffff1681526020016003820154815260200160048201548152602001600582015481526020016006820160009054906101000a900460ff1615151515815250509050919050565b600460003373ffffffffffffffffffffffffffffffffffffffff1673ffffffffffffffffffffffffffffffffffffffff16815260200190815260200160002080549050811115610379576040517f08c379a000000000000000000000000000000000000000000000000000000000815260040161037090610fed565b60405180910390fd5b6003600082815260200190815260200160002060020160009054906101000a900473ffffffffffffffffffffffffffffffffffffffff1673ffffffffffffffffffffffffffffffffffffffff163373ffffffffffffffffffffffffffffffffffffffff161461041d576040517f08c379a00000000000000000000000000000000000000000000000000000000081526004016104149061107f565b60405180910390fd5b6003600082815260200190815260200160002060040154421015610476576040517f08c379a000000000000000000000000000000000000000000000000000000000815260040161046d90611111565b60405180910390fd5b600015156003600083815260200190815260200160002060060160009054906101000a900460ff161515146104e0576040517f08c379a00000000000000000000000000000000000000000000000000000000081526004016104d7906111a3565b60405180910390fd5b60006003600083815260200190815260200160002060050154905060006003600084815260200190815260200160002060010160009054906101000a900473ffffffffffffffffffffffffffffffffffffffff1690508073ffffffffffffffffffffffffffffffffffffffff1663a9059cbb33846040518363ffffffff1660e01b81526004016105719291906111d2565b6020604051808303816000875af1158015610590573d6000803e3d6000fd5b505050506040513d601f19601f820116820180604052508101906105b49190611227565b5060016003600085815260200190815260200160002060060160006101000a81548160ff0219169083151502179055507f97e53ba16c782bf4e86f9858f6262f0e8b7ebd2f81c1d26c8cb6672fe6fe227d30338460405161061793929190611254565b60405180910390a1505050565b60025481565b8273ffffffffffffffffffffffffffffffffffffffff166323b872dd3330856040518463ffffffff1660e01b815260040161066793929190611254565b6020604051808303816000875af1158015610686573d6000803e3d6000fd5b505050506040513d601f19601f820116820180604052508101906106aa9190611227565b5060005460036000805481526020019081526020016000206000018190555082600360008054815260200190815260200160002060010160006101000a81548173ffffffffffffffffffffffffffffffffffffffff021916908373ffffffffffffffffffffffffffffffffffffffff16021790555033600360008054815260200190815260200160002060020160006101000a81548173ffffffffffffffffffffffffffffffffffffffff021916908373ffffffffffffffffffffffffffffffffffffffff16021790555042600360008054815260200190815260200160002060030181905550804261079d91906112ba565b600360008054815260200190815260200160002060040181905550816003600080548152602001908152602001600020600501819055506000600360008054815260200190815260200160002060060160006101000a81548160ff021916908315150217905550816002600082825461081691906112ba565b9250508190555081600660003373ffffffffffffffffffffffffffffffffffffffff1673ffffffffffffffffffffffffffffffffffffffff16815260200190815260200160002060008573ffffffffffffffffffffffffffffffffffffffff1673ffffffffffffffffffffffffffffffffffffffff16815260200190815260200160002060008282546108a991906112ba565b92505081905550600460003373ffffffffffffffffffffffffffffffffffffffff1673ffffffffffffffffffffffffffffffffffffffff168152602001908152602001600020600054908060018154018082558091505060019003906000526020600020016000909190919091505560016000549080600181540180825580915050600190039060005260206000200160009091909190915055600560008473ffffffffffffffffffffffffffffffffffffffff1673ffffffffffffffffffffffffffffffffffffffff16815260200190815260200160002060005490806001815401808255809150506001900390600052602060002001600090919091909150557fb766d3a37f5cf765dac0a3cc64a0e39c8e6f6e076c917b54db3cfb1c5e8a16593330846000546040516109e29493929190611310565b60405180910390a16000808154809291906109fc90611355565b9190505550505050565b6000600660003373ffffffffffffffffffffffffffffffffffffffff1673ffffffffffffffffffffffffffffffffffffffff16815260200190815260200160002060008373ffffffffffffffffffffffffffffffffffffffff1673ffffffffffffffffffffffffffffffffffffffff168152602001908152602001600020549050919050565b60606001805480602002602001604051908101604052809291908181526020018280548015610ada57602002820191906000526020600020905b815481526020019060010190808311610ac6575b5050505050905090565b60005481565b6060600460003373ffffffffffffffffffffffffffffffffffffffff1673ffffffffffffffffffffffffffffffffffffffff168152602001908152602001600020805480602002602001604051908101604052809291908181526020018280548015610b7557602002820191906000526020600020905b815481526020019060010190808311610b61575b5050505050905090565b60008173ffffffffffffffffffffffffffffffffffffffff166370a08231306040518263ffffffff1660e01b8152600401610bba919061139e565b602060405180830381865afa158015610bd7573d6000803e3d6000fd5b505050506040513d601f19601f82011682018060405250810190610bfb91906113ce565b9050919050565b6040518060e0016040528060008152602001600073ffffffffffffffffffffffffffffffffffffffff168152602001600073ffffffffffffffffffffffffffffffffffffffff1681526020016000815260200160008152602001600081526020016000151581525090565b600080fd5b6000819050919050565b610c8581610c72565b8114610c9057600080fd5b50565b600081359050610ca281610c7c565b92915050565b600060208284031215610cbe57610cbd610c6d565b5b6000610ccc84828501610c93565b91505092915050565b610cde81610c72565b82525050565b600073ffffffffffffffffffffffffffffffffffffffff82169050919050565b6000610d0f82610ce4565b9050919050565b610d1f81610d04565b82525050565b60008115159050919050565b610d3a81610d25565b82525050565b60e082016000820151610d566000850182610cd5565b506020820151610d696020850182610d16565b506040820151610d7c6040850182610d16565b506060820151610d8f6060850182610cd5565b506080820151610da26080850182610cd5565b5060a0820151610db560a0850182610cd5565b5060c0820151610dc860c0850182610d31565b50505050565b600060e082019050610de36000830184610d40565b92915050565b610df281610c72565b82525050565b6000602082019050610e0d6000830184610de9565b92915050565b610e1c81610d04565b8114610e2757600080fd5b50565b600081359050610e3981610e13565b92915050565b600080600060608486031215610e5857610e57610c6d565b5b6000610e6686828701610e2a565b9350506020610e7786828701610c93565b9250506040610e8886828701610c93565b9150509250925092565b600060208284031215610ea857610ea7610c6d565b5b6000610eb684828501610e2a565b91505092915050565b600081519050919050565b600082825260208201905092915050565b6000819050602082019050919050565b6000610ef78383610cd5565b60208301905092915050565b6000602082019050919050565b6000610f1b82610ebf565b610f258185610eca565b9350610f3083610edb565b8060005b83811015610f61578151610f488882610eeb565b9750610f5383610f03565b925050600181019050610f34565b5085935050505092915050565b60006020820190508181036000830152610f888184610f10565b905092915050565b600082825260208201905092915050565b7f506c6561736520456e7465722076616c69642049640000000000000000000000600082015250565b6000610fd7601583610f90565b9150610fe282610fa1565b602082019050919050565b6000602082019050818103600083015261100681610fca565b9050919050565b7f596f7520617265206e6f7420617574686f72697a656420666f7220776974686460008201527f726177616c000000000000000000000000000000000000000000000000000000602082015250565b6000611069602583610f90565b91506110748261100d565b604082019050919050565b600060208201905081810360008301526110988161105c565b9050919050565b7f596f752063616e277420776974686472617720746f6b656e206265666f72652060008201527f756e6c6f636b74696d6500000000000000000000000000000000000000000000602082015250565b60006110fb602a83610f90565b91506111068261109f565b604082019050919050565b6000602082019050818103600083015261112a816110ee565b9050919050565b7f596f75206861766520616c7265616479207769746864726177656420746f6b6560008201527f6e73000000000000000000000000000000000000000000000000000000000000602082015250565b600061118d602283610f90565b915061119882611131565b604082019050919050565b600060208201905081810360008301526111bc81611180565b9050919050565b6111cc81610d04565b82525050565b60006040820190506111e760008301856111c3565b6111f46020830184610de9565b9392505050565b61120481610d25565b811461120f57600080fd5b50565b600081519050611221816111fb565b92915050565b60006020828403121561123d5761123c610c6d565b5b600061124b84828501611212565b91505092915050565b600060608201905061126960008301866111c3565b61127660208301856111c3565b6112836040830184610de9565b949350505050565b7f4e487b7100000000000000000000000000000000000000000000000000000000600052601160045260246000fd5b60006112c582610c72565b91506112d083610c72565b9250827fffffffffffffffffffffffffffffffffffffffffffffffffffffffffffffffff038211156113055761130461128b565b5b828201905092915050565b600060808201905061132560008301876111c3565b61133260208301866111c3565b61133f6040830185610de9565b61134c6060830184610de9565b95945050505050565b600061136082610c72565b91507fffffffffffffffffffffffffffffffffffffffffffffffffffffffffffffffff8214156113935761139261128b565b5b600182019050919050565b60006020820190506113b360008301846111c3565b92915050565b6000815190506113c881610c7c565b92915050565b6000602082840312156113e4576113e3610c6d565b5b60006113f2848285016113b9565b9150509291505056fea2646970667358221220eede3f68c392e0b2eedc16848d5efea8d9ca5ad694bbcdcbfc34189ecf6f8d2164736f6c634300080b0033",
  "linkReferences": {},
  "deployedLinkReferences": {}
}